{
  "_format": "hh-sol-artifact-1",
  "contractName": "Staking",
  "sourceName": "contracts/Staking.sol",
  "abi": [
    {
      "inputs": [
        {
          "internalType": "address",
          "name": "stakingToken",
          "type": "address"
        },
        {
          "internalType": "address",
          "name": "rewardToken",
          "type": "address"
        }
      ],
      "stateMutability": "nonpayable",
      "type": "constructor"
    },
    {
      "inputs": [],
      "name": "REWARD_RATE",
      "outputs": [
        {
          "internalType": "uint256",
          "name": "",
          "type": "uint256"
        }
      ],
      "stateMutability": "view",
      "type": "function"
    },
    {
      "inputs": [],
      "name": "claimReward",
      "outputs": [],
      "stateMutability": "nonpayable",
      "type": "function"
    },
    {
      "inputs": [
        {
          "internalType": "address",
          "name": "account",
          "type": "address"
        }
      ],
      "name": "earned",
      "outputs": [
        {
          "internalType": "uint256",
          "name": "",
          "type": "uint256"
        }
      ],
      "stateMutability": "view",
      "type": "function"
    },
    {
      "inputs": [],
      "name": "rewardPerToken",
      "outputs": [
        {
          "internalType": "uint256",
          "name": "",
          "type": "uint256"
        }
      ],
      "stateMutability": "view",
      "type": "function"
    },
    {
      "inputs": [
        {
          "internalType": "address",
          "name": "",
          "type": "address"
        }
      ],
      "name": "s_balances",
      "outputs": [
        {
          "internalType": "uint256",
          "name": "",
          "type": "uint256"
        }
      ],
      "stateMutability": "view",
      "type": "function"
    },
    {
      "inputs": [],
      "name": "s_lastUpdateTime",
      "outputs": [
        {
          "internalType": "uint256",
          "name": "",
          "type": "uint256"
        }
      ],
      "stateMutability": "view",
      "type": "function"
    },
    {
      "inputs": [],
      "name": "s_rewardPerTokenStored",
      "outputs": [
        {
          "internalType": "uint256",
          "name": "",
          "type": "uint256"
        }
      ],
      "stateMutability": "view",
      "type": "function"
    },
    {
      "inputs": [],
      "name": "s_rewardToken",
      "outputs": [
        {
          "internalType": "contract IERC20",
          "name": "",
          "type": "address"
        }
      ],
      "stateMutability": "view",
      "type": "function"
    },
    {
      "inputs": [
        {
          "internalType": "address",
          "name": "",
          "type": "address"
        }
      ],
      "name": "s_rewards",
      "outputs": [
        {
          "internalType": "uint256",
          "name": "",
          "type": "uint256"
        }
      ],
      "stateMutability": "view",
      "type": "function"
    },
    {
      "inputs": [],
      "name": "s_stakingToken",
      "outputs": [
        {
          "internalType": "contract IERC20",
          "name": "",
          "type": "address"
        }
      ],
      "stateMutability": "view",
      "type": "function"
    },
    {
      "inputs": [],
      "name": "s_totalSupply",
      "outputs": [
        {
          "internalType": "uint256",
          "name": "",
          "type": "uint256"
        }
      ],
      "stateMutability": "view",
      "type": "function"
    },
    {
      "inputs": [
        {
          "internalType": "address",
          "name": "",
          "type": "address"
        }
      ],
      "name": "s_userRewardPerTokenPaid",
      "outputs": [
        {
          "internalType": "uint256",
          "name": "",
          "type": "uint256"
        }
      ],
      "stateMutability": "view",
      "type": "function"
    },
    {
      "inputs": [
        {
          "internalType": "uint256",
          "name": "amount",
          "type": "uint256"
        }
      ],
      "name": "stake",
      "outputs": [],
      "stateMutability": "nonpayable",
      "type": "function"
    },
    {
      "inputs": [
        {
          "internalType": "uint256",
          "name": "amount",
          "type": "uint256"
        }
      ],
      "name": "withdraw",
      "outputs": [],
      "stateMutability": "nonpayable",
      "type": "function"
    }
  ],
  "bytecode": "0x60806040523480156200001157600080fd5b506040516200120b3803806200120b8339818101604052810190620000379190620000d7565b816000806101000a81548173ffffffffffffffffffffffffffffffffffffffff021916908373ffffffffffffffffffffffffffffffffffffffff16021790555080600160006101000a81548173ffffffffffffffffffffffffffffffffffffffff021916908373ffffffffffffffffffffffffffffffffffffffff160217905550505062000171565b600081519050620000d18162000157565b92915050565b60008060408385031215620000f157620000f062000152565b5b60006200010185828601620000c0565b92505060206200011485828601620000c0565b9150509250929050565b60006200012b8262000132565b9050919050565b600073ffffffffffffffffffffffffffffffffffffffff82169050919050565b600080fd5b62000162816200011e565b81146200016e57600080fd5b50565b61108a80620001816000396000f3fe608060405234801561001057600080fd5b50600436106100e95760003560e01c8063a694fc3a1161008c578063b88a802f11610066578063b88a802f1461023a578063bea0815114610244578063cd3daf9d14610274578063f245ace414610292576100e9565b8063a694fc3a146101d0578063ab32eb69146101ec578063adca9b721461021c576100e9565b80635997bb37116100c85780635997bb37146101585780636374cc00146101765780636a74a0fc146101945780636aa0838f146101b2576100e9565b80628cc262146100ee5780632e1a7d4d1461011e578063304ac91b1461013a575b600080fd5b61010860048036038101906101039190610b7a565b6102c2565b6040516101159190610d72565b60405180910390f35b61013860048036038101906101339190610bd4565b6103e1565b005b6101426105f5565b60405161014f9190610d72565b60405180910390f35b6101606105fb565b60405161016d9190610d72565b60405180910390f35b61017e610600565b60405161018b9190610cf7565b60405180910390f35b61019c610626565b6040516101a99190610d72565b60405180910390f35b6101ba61062c565b6040516101c79190610d72565b60405180910390f35b6101ea60048036038101906101e59190610bd4565b610632565b005b61020660048036038101906102019190610b7a565b610888565b6040516102139190610d72565b60405180910390f35b6102246108a0565b6040516102319190610cf7565b60405180910390f35b6102426108c4565b005b61025e60048036038101906102599190610b7a565b610aa8565b60405161026b9190610d72565b60405180910390f35b61027c610ac0565b6040516102899190610d72565b60405180910390f35b6102ac60048036038101906102a79190610b7a565b610b23565b6040516102b99190610d72565b60405180910390f35b600080600260008473ffffffffffffffffffffffffffffffffffffffff1673ffffffffffffffffffffffffffffffffffffffff1681526020019081526020016000205490506000600360008573ffffffffffffffffffffffffffffffffffffffff1673ffffffffffffffffffffffffffffffffffffffff1681526020019081526020016000205490506000610355610ac0565b90506000600460008773ffffffffffffffffffffffffffffffffffffffff1673ffffffffffffffffffffffffffffffffffffffff168152602001908152602001600020549050600081670de0b6b3a764000085856103b39190610e7f565b876103be9190610e25565b6103c89190610df4565b6103d29190610d9e565b90508095505050505050919050565b336103ea610ac0565b60068190555042600781905550610400816102c2565b600460008373ffffffffffffffffffffffffffffffffffffffff1673ffffffffffffffffffffffffffffffffffffffff16815260200190815260200160002081905550600654600360008373ffffffffffffffffffffffffffffffffffffffff1673ffffffffffffffffffffffffffffffffffffffff168152602001908152602001600020819055508160008114156104ce576040517f08c379a00000000000000000000000000000000000000000000000000000000081526004016104c590610d32565b60405180910390fd5b82600260003373ffffffffffffffffffffffffffffffffffffffff1673ffffffffffffffffffffffffffffffffffffffff168152602001908152602001600020600082825461051d9190610e7f565b9250508190555082600560008282546105369190610e7f565b9250508190555060008060009054906101000a900473ffffffffffffffffffffffffffffffffffffffff1673ffffffffffffffffffffffffffffffffffffffff1663a9059cbb33866040518363ffffffff1660e01b815260040161059b929190610cce565b602060405180830381600087803b1580156105b557600080fd5b505af11580156105c9573d6000803e3d6000fd5b505050506040513d601f19601f820116820180604052508101906105ed9190610ba7565b905050505050565b60065481565b606481565b600160009054906101000a900473ffffffffffffffffffffffffffffffffffffffff1681565b60055481565b60075481565b3361063b610ac0565b60068190555042600781905550610651816102c2565b600460008373ffffffffffffffffffffffffffffffffffffffff1673ffffffffffffffffffffffffffffffffffffffff16815260200190815260200160002081905550600654600360008373ffffffffffffffffffffffffffffffffffffffff1673ffffffffffffffffffffffffffffffffffffffff1681526020019081526020016000208190555081600081141561071f576040517f08c379a000000000000000000000000000000000000000000000000000000000815260040161071690610d32565b60405180910390fd5b82600260003373ffffffffffffffffffffffffffffffffffffffff1673ffffffffffffffffffffffffffffffffffffffff168152602001908152602001600020600082825461076e9190610d9e565b9250508190555082600560008282546107879190610d9e565b9250508190555060008060009054906101000a900473ffffffffffffffffffffffffffffffffffffffff1673ffffffffffffffffffffffffffffffffffffffff166323b872dd3330876040518463ffffffff1660e01b81526004016107ee93929190610c97565b602060405180830381600087803b15801561080857600080fd5b505af115801561081c573d6000803e3d6000fd5b505050506040513d601f19601f820116820180604052508101906108409190610ba7565b905080610882576040517f08c379a000000000000000000000000000000000000000000000000000000000815260040161087990610d12565b60405180910390fd5b50505050565b60026020528060005260406000206000915090505481565b60008054906101000a900473ffffffffffffffffffffffffffffffffffffffff1681565b336108cd610ac0565b600681905550426007819055506108e3816102c2565b600460008373ffffffffffffffffffffffffffffffffffffffff1673ffffffffffffffffffffffffffffffffffffffff16815260200190815260200160002081905550600654600360008373ffffffffffffffffffffffffffffffffffffffff1673ffffffffffffffffffffffffffffffffffffffff168152602001908152602001600020819055506000600460003373ffffffffffffffffffffffffffffffffffffffff1673ffffffffffffffffffffffffffffffffffffffff1681526020019081526020016000205490506000600160009054906101000a900473ffffffffffffffffffffffffffffffffffffffff1673ffffffffffffffffffffffffffffffffffffffff1663a9059cbb33846040518363ffffffff1660e01b8152600401610a0f929190610cce565b602060405180830381600087803b158015610a2957600080fd5b505af1158015610a3d573d6000803e3d6000fd5b505050506040513d601f19601f82011682018060405250810190610a619190610ba7565b905080610aa3576040517f08c379a0000000000000000000000000000000000000000000000000000000008152600401610a9a90610d52565b60405180910390fd5b505050565b60046020528060005260406000206000915090505481565b6000806005541415610ad6576006549050610b20565b600554670de0b6b3a7640000606460075442610af29190610e7f565b610afc9190610e25565b610b069190610e25565b610b109190610df4565b600654610b1d9190610d9e565b90505b90565b60036020528060005260406000206000915090505481565b600081359050610b4a8161100f565b92915050565b600081519050610b5f81611026565b92915050565b600081359050610b748161103d565b92915050565b600060208284031215610b9057610b8f610f8f565b5b6000610b9e84828501610b3b565b91505092915050565b600060208284031215610bbd57610bbc610f8f565b5b6000610bcb84828501610b50565b91505092915050565b600060208284031215610bea57610be9610f8f565b5b6000610bf884828501610b65565b91505092915050565b610c0a81610eb3565b82525050565b610c1981610efb565b82525050565b6000610c2c600683610d8d565b9150610c3782610f94565b602082019050919050565b6000610c4f601883610d8d565b9150610c5a82610fbd565b602082019050919050565b6000610c72600483610d8d565b9150610c7d82610fe6565b602082019050919050565b610c9181610ef1565b82525050565b6000606082019050610cac6000830186610c01565b610cb96020830185610c01565b610cc66040830184610c88565b949350505050565b6000604082019050610ce36000830185610c01565b610cf06020830184610c88565b9392505050565b6000602082019050610d0c6000830184610c10565b92915050565b60006020820190508181036000830152610d2b81610c1f565b9050919050565b60006020820190508181036000830152610d4b81610c42565b9050919050565b60006020820190508181036000830152610d6b81610c65565b9050919050565b6000602082019050610d876000830184610c88565b92915050565b600082825260208201905092915050565b6000610da982610ef1565b9150610db483610ef1565b9250827fffffffffffffffffffffffffffffffffffffffffffffffffffffffffffffffff03821115610de957610de8610f31565b5b828201905092915050565b6000610dff82610ef1565b9150610e0a83610ef1565b925082610e1a57610e19610f60565b5b828204905092915050565b6000610e3082610ef1565b9150610e3b83610ef1565b9250817fffffffffffffffffffffffffffffffffffffffffffffffffffffffffffffffff0483118215151615610e7457610e73610f31565b5b828202905092915050565b6000610e8a82610ef1565b9150610e9583610ef1565b925082821015610ea857610ea7610f31565b5b828203905092915050565b6000610ebe82610ed1565b9050919050565b60008115159050919050565b600073ffffffffffffffffffffffffffffffffffffffff82169050919050565b6000819050919050565b6000610f0682610f0d565b9050919050565b6000610f1882610f1f565b9050919050565b6000610f2a82610ed1565b9050919050565b7f4e487b7100000000000000000000000000000000000000000000000000000000600052601160045260246000fd5b7f4e487b7100000000000000000000000000000000000000000000000000000000600052601260045260246000fd5b600080fd5b7f4661696c65640000000000000000000000000000000000000000000000000000600082015250565b7f4661696c2c206e6f74206d726f65207468616e207a65726f0000000000000000600082015250565b7f4661696c00000000000000000000000000000000000000000000000000000000600082015250565b61101881610eb3565b811461102357600080fd5b50565b61102f81610ec5565b811461103a57600080fd5b50565b61104681610ef1565b811461105157600080fd5b5056fea264697066735822122005770a6e3f7493088ad6a7801c878a60cb34f12a95197e652fa13234dd1aaa5564736f6c63430008070033",
  "linkReferences": {},
  "deployedLinkReferences": {}
}